:02000000FA2ED6
:1000060083160313141911281F301105F100710806
:10001600003A031D11280130F0001228F0010800F3
:10002600831203138C11660893008316141D1C2873
:10003600182883128C1920281C288316111B2528A2
:0C004600F001282811150230F00008001D
:080052008316031311150800C9
:10005A0083120313E601E7016708123C031D3728E0
:10006A0066088E3C031C43280320700803193E28A7
:10007A0043288312E60A0319E70A31288312123049
:10008A006702031D4A288F306602031C4F287B3003
:10009A00F000552883161114111C54285128F00118
:0200AA0008004C
:1000AC007B15FB1F60280130F300F201F101F00118
:0800BC00FA0DF20CFF30080000
:1000C40083120313E501F0306205E3006208E400E3
:1000D400E40D6410E40D6410E40D6410E40D641088
:1000E400F030E4052D2003204E308312E600132067
:1000F4000320831265086304E6006615E6151320E1
:1001040003202130FD00FD0B85288312650863045C
:10011400E600E615132003204230FD00FD0B902875
:100124000000831265086404E6006615E6151320D2
:1001340003202130FD00FD0B9D2883126508640413
:10014400E600E61513200320292083126208013AF1
:10015400031DB5280630FC003030FD00FD0BB0282F
:08016400FC0BB02800000800AC
:0E016C00F201F101F001F801F301003008008A
:08017A00FA1FF2130030080027
:10018200FB14FB1FCB28FF30F300F200F100F0005C
:08019200FA0DF20CFF30080029
:10019A0083120313FB017308031D7708031924292B
:1001AA0072087606FA007708F3077E30031CE12806
:1001BA00F30203182729E428F302031C2A297208E8
:1001CA00F8007108FC007008FD00F817F617031014
:1001DA00F201F101F0011830A0007D1CFE2874081C
:1001EA00F00775080318750FF10776080318760FDC
:1001FA00F207F20CF10CF00CF80CFC0CFD0C0310DD
:10020A00A00BF228F21B0E29F80DF00DF10DF20DDC
:10021A00F3037B1B701C2029F81F2029F00A0319FD
:10022A00F10A0319F20A031D2029F20CF10CF00C51
:10023A00F30A03192729FA1FF21300302C29013077
:10024A00B6202C290230C1202C2904305620000067
:02025A0008009A
:10025C0083120313FA017308031D7A147708031D24
:10026C00FA147A0803197A29033A031945297A18DA
:10027C004229F61F78297629F21F762978297208E7
:10028C008039FA00F21376088039F6137A060319CE
:10029C0053297A08031976297829770873020319E8
:1002AC005A29031C6E2972297608720203196129D6
:1002BC00031C6E2972297508710203196829031C25
:1002CC006E2972297408700203197A29031872298D
:1002DC00FA08031978297629FA0803197629782956
:1002EC000314080003100800031403150800080089
:1002FC00831203135C08F2007208F100F20A5D0825
:10030C00F000DD0A700884000008F0007108840019
:10031C00700880007108840000080319962982294E
:06032C005C08F00008006F
:1003320083120313F8010830FC00700DF80D7408E5
:10034200F8020318A629F8070310F00DFC0B9E29EA
:020352000800A1
:10035400013083120313E100CB295D03F000700820
:10036400803EE2006220DB295D03F0007008C03E9D
:10037400E2006220DB295D03F0007008943EE20095
:100384006220DB295D03F0007008D43EE2006220A5
:10039400DB295C08013A0319AF295C08023A031906
:1003A400B6295C08033A0319BD295C08043A031909
:1003B400C429F0305E05DF005E08E000E00D601047
:1003C400E00D6010E00D6010E00D6010F030E0050D
:1003D4002D2003204E308312E600132003208312C5
:1003E40061085F04E6006615E615132003200D304E
:1003F400FC00FB30FD00FD0BFD29FC0BFD2900007A
:100404000000831261085F04E600E6151320032050
:100414001A30FC00F830FD00FD0B0E2AFC0B0E2AEE
:100424000000831261086004E6006615E6151320D7
:1004340003200D30FC00FB30FD00FD0B1F2AFC0BDC
:100444001F2A00000000831261086004E600E6151C
:080454001320032029200800F9
:10045C00A0017208031D432A7108F2007008F10014
:10046C00F001A0157208031D432A7108F200F10176
:10047C00A011201672080319512A2008F302031D3B
:10048C00031C552A0310F21B592AF00DF10DF20D25
:10049C00F30B492A552A0130FC00B6205C2A0230A5
:0E04AC00FC0056205C2A0430FC00BD20080035
:0604BA00FB15FF300800F5
:1004C000831203137408003A031D7B2A7508003A4F
:1004D000031D7B2A7608003A031D7B2A7708003A21
:1004E000031D7B2AFF30F000FF30F1007F30F20067
:1004F000FF30F300162B83120313770803190A2B1E
:10050000730803190D2B720876068039FA00F2176A
:10051000F617A0017208F8007108FC007008FD00D1
:100520007408FD027508031C750FFC027608031C95
:10053000760FF802F801FC01FD01031CA62A031046
:10054000F20CF10CF00CF80C0130A0007708F3026B
:10055000031CB02A7E302007F3070318102BB52A9E
:100560007E302007F307031C132B1830FA07FD0D0C
:10057000FC0DF80DF00DF10DF20DA00D7408F00258
:100580007508031C750FF1027608031C760FF20242
:10059000760DA004201CCE2A7D14D92A7408F007F9
:1005A00075080318750FF10776080318760AF20725
:1005B0007D10FA031F307A05031DB72A7B1B7D1CB3
:1005C000002B0310F00DF10DF20DA00D7408F002D8
:1005D0007508031C750FF1027608031C760FF202F2
:1005E000760D20040139FD070318FC0A0319F80AE7
:1005F000031D002BF80CFC0CFD0CF30A0319102B47
:10060000FA1FF8137808F2007C08F1007D08F0006A
:100610000030152B01305D22152B0230B620152B32
:0E0620000430C120152B0830562000000800C1
:10062E008312031351088400000803192B2B4F0863
:10063E00DC005008DD00510884000008DE00AA210D
:0A064E008312D00AD10A172B08000E
:100658007B14FB1F372BF201FA1FFF30F200F10069
:0A066800F000FA0DF20CFF3008005C
:100672000E3083120313FD00FD0B3D2B000008001A
:1006820083120313DA01DB014F08D6005008D700AA
:100692005108D8005208D9005908FF3A031D5B2BB4
:1006A2005808FF3A031D5B2B5708FF3A031D5B2BCB
:1006B2005608FF3A031D652B5308DC002130DD008C
:1006C2007E210330F0003A2D0130D400D81F742B64
:1006D20080305806F0007008D800D40A530884000D
:1006E2002D308000D30A0030F0005906031D832B01
:1006F20070085806031D832B70085706031D832BB1
:100702005608003A031D8C2B5308DC002530DD000F
:100712007E21F0013A2D5908FF3A031D9A2B580801
:10072200003A031D9A2B5708003A031D9A2B5608CC
:10073200003A031DA42B5308DC002730DD007E2184
:100742005408F0003A2D0030F4000030F50000307B
:10075200F6007F30F7005608F0005708F1005808FD
:10076200F2005908F3002E21013003180030F00086
:1007720070080319D72B5608F0005708F1005808E3
:10078200F2005908F3000030F4000030F500203088
:10079200F6008230F700CD207008D6007108D7002D
:1007A2007208D8007308D900DB03A42B0030F400D0
:1007B2000030F5002030F6008230F7005608F000D5
:1007C2005708F1005808F2005908F3002E210130B1
:1007D200031C0030F000700803190A2C5608F000C0
:1007E2005708F1005808F2005908F300CD30F40020
:1007F200CC30F5004C30F6007B30F700CD2070088D
:10080200D6007108D7007208D8007308D900DB0A35
:10081200D72BFF305605F800FF305705F9007F301F
:100822005805FA0000305905FB007808F4007908F1
:10083200F5007A08F6007B08F700F40DF50DF60DC9
:10084200F70D741000305605F00000305705F10026
:1008520000305805F200FF305905F3007008D60049
:100862007108D7007208D8007308D90074085604BA
:10087200F00075085704F10076085804F200770872
:100882005904F3007008D6007108D7007208D80026
:100892007308D9007F305902F0007008D50001308A
:1008A200D9007008F4005608F0005708F100580803
:1008B200F2005908F30074080319662CF00DF10DCB
:1008C200F20DF30D7010FF3E5D2C7008D60071081A
:1008D200D7007208D8007308D9005908303EF000DA
:1008E2005308840070088000D30A80305B06F00051
:1008F2008030013A7002031C872C8030063AF000E7
:1009020080305B067002031C872C8E2C53088400F7
:100912002E308000D30A0130DA000630D5005508A7
:10092200003A0319EC2CD9015608F0005708F100DF
:100932005808F2005908F300F00DF10DF20DF30D15
:100942007010F00DF10DF20DF30D70105608F00756
:1009520057080318570FF10758080318580FF207E2
:1009620059080318590FF3077008D6007108D70009
:100972007208D8007308D9005608F0005708F10031
:100982005808F2005908F300F00DF10DF20DF30DC5
:1009920070107008D6007108D7007208D80073086A
:1009A200D9005908303EF0005308840070088000D6
:1009B200D30A5A08003A031DEA2CDB035B08003A0B
:1009C200031DEA2C530884002E308000D30A013024
:1009D200DA00D503902CFF30530784000008303A28
:1009E200031DF52CD303EC2CFF30530784000008C1
:1009F2002E3A031DFD2CD3035B08003A0319362D52
:100A02005308840065308000D30A80305B06F00012
:100A12008030003A70020318162D530884002D30DE
:100A22008000D30A5B08003CDB005B08D5005B0852
:100A3200093C0318282D0A30F4005508F0009921CA
:100A42003030F0075308840070088000D30A0A305F
:100A5200F4005508F00099217808F0003030F007D2
:100A62005308840070088000D30A53088400800170
:040A7200F001080087
:100A7600831203137008F8007108F000F101F20107
:100A8600F301FB01FC019630F300FA01F01F512D32
:100A9600F809F009F80A0319F00AFA177008F100C4
:0C0AA6007808F000F801F2012E22080090
:0E0AB2008312031340088A003F0882000800E8
:100AC000831203134408F0004508F1003B25003071
:100AD000F4000030F5007A30F6008730F700CD20C2
:100AE0000030F400E030F5007F30F6008830F70089
:040AF0006022080078
:100AF400003083120313F4000030F5002030F600B8
:100B04008430F7004408F0004508F1004608F2007C
:100B14004708F3002E210130031C0030F000700858
:100B24000319972D06308600992D013086000800A0
:100B340083120313FB0173080319D72D7208FA00FB
:100B4400F2178E30F302F31FDA2DF309F30A08309B
:100B54007302031CBD2DF300F10D7208F100F201C4
:100B640008307302031CBD2DF300F10DF10173086D
:100B7400031D0310C52D73080319C52D0310F20CB2
:100B8400F10CF30BC02D7B1B711CCF2D031CCF2D3F
:100B9400F10A0319F20AF21BE62DFA1FE92DF209F4
:100BA400F109F10A0319F20AE92DF201F101E92D23
:100BB4007B14FB1FEC2DF201FA1FEC2DFF30F20029
:100BC400F100FA0DF20CEC2D0130FC00EE2D00309A
:100BD400FC00EE2DFF30FC00FC080319F22D2C2341
:0A0BE4007108F0007208F10008002B
:100BEE00831203137008F8007108F000F101F2018E
:100BFE00F301FB01FC019630F300FA017008F100DD
:0C0C0E007808F000F801F2012E22080026
:100C1A00831203134408CF004508D0004608D100C8
:100C2A004708D2004830D3004123CE010230CF001A
:0C0C3A000130D0004830D1001723080022
:100C460083120313C4012D2003204E308312E600C5
:100C5600132003204E30FC00EB30FD00FD0B312E3F
:100C6600FC0B312E303083124404E6006615E6157F
:100C7600132003202130FD00FD0B3F2E3030831260
:100C86004404E600E615132003201A30FC00F83071
:100C9600FD00FD0B4C2EFC0B4C2E00003030831259
:100CA6004404E6006615E615132003202130FD00F6
:100CB600FD0B5B2E303083124404E600E61513204C
:100CC60003201A30FC00F830FD00FD0B682EFC0BEB
:100CD600682E0000303083124404E6006615E615DF
:100CE600132003202130FD00FD0B772E30308312B8
:100CF6004404E600E615132003201A30FC00F83001
:100D0600FD00FD0B842EFC0B842E00002030831288
:100D16004404E6006615E615132003202130FD0085
:100D2600FD0B932E203083124404E600E6151320B3
:100D3600032029201A30FC00F830FD00FD0BA12EFF
:100D4600FC0BA12E000028308312E2006220063040
:060D5600E200622008002B
:100D5C008316031314139413071687153830831254
:040D6C0094000800E7
:100D700059258A110A128000840ABF0A0319C00A81
:080D8000F003031DB82E08006A
:100D8800831203139F01C0309F0483161F179F17F8
:100D980083124408F000F00D7010F00D7010F00D83
:100DA800701070089F041F1439231F151F1DDE2E95
:100DB8000000DA2E1F101E08F100F00183161E082D
:080DC800F0040030F104080002
:100DD000FF3083120313C100FF30C200FF30C30095
:100DE000FF309F01C0309F0483161F179F17831287
:040DF0001F140800C4
:100DF400662701308316031385008601831285015B
:100E04008601E826143083169300AE2623260C3080
:100E1400E20062200130E20062200130CF000130A4
:100E2400D0002B30D1001723C401C426F725700845
:100E3400BB007108BC007208BD007308BE009A258F
:100E44007008C4007108C50060257008BB007108F3
:100E5400BC007208BD007308BE007008C4007108AD
:100E6400C5007208C6007308C7007A253B08C40091
:100E74003C08C5003D08C6003E08C7000D26162FD5
:020E8400422FFB
:100ECC00213084001E3083120313F0004830BF0021
:080EDC000730C000B826080031
:080E90004E3461344E3400348D
:040E980030340034BE
:080E9C0049344E3446340034A1
:100EA400543465346D34703465347234613474345C
:100EB4007534723465343A34003400340034003408
:080EC400003400340034003456
:02400E004A2F37
:00000001FF
